{
	"contracts/ControlStructures.sol": {
		"ControlStructures": {
			"abi": [
				{
					"inputs": [
						{
							"internalType": "uint256",
							"name": "time",
							"type": "uint256"
						}
					],
					"name": "AfterHours",
					"type": "error"
				},
				{
					"inputs": [
						{
							"internalType": "uint256",
							"name": "_time",
							"type": "uint256"
						}
					],
					"name": "doNotDisturb",
					"outputs": [
						{
							"internalType": "string",
							"name": "",
							"type": "string"
						}
					],
					"stateMutability": "pure",
					"type": "function"
				},
				{
					"inputs": [
						{
							"internalType": "uint256",
							"name": "_number",
							"type": "uint256"
						}
					],
					"name": "fizzBuzz",
					"outputs": [
						{
							"internalType": "string",
							"name": "",
							"type": "string"
						}
					],
					"stateMutability": "pure",
					"type": "function"
				}
			],
			"devdoc": {
				"kind": "dev",
				"methods": {},
				"version": 1
			},
			"evm": {
				"assembly": "    /* \"contracts/ControlStructures.sol\":93:1549  contract ControlStructures {... */\n  mstore(0x40, 0x80)\n  callvalue\n  dup1\n  iszero\n  tag_1\n  jumpi\n  revert(0x00, 0x00)\ntag_1:\n  pop\n  dataSize(sub_0)\n  dup1\n  dataOffset(sub_0)\n  0x00\n  codecopy\n  0x00\n  return\nstop\n\nsub_0: assembly {\n        /* \"contracts/ControlStructures.sol\":93:1549  contract ControlStructures {... */\n      mstore(0x40, 0x80)\n      callvalue\n      dup1\n      iszero\n      tag_1\n      jumpi\n      revert(0x00, 0x00)\n    tag_1:\n      pop\n      jumpi(tag_2, lt(calldatasize, 0x04))\n      shr(0xe0, calldataload(0x00))\n      dup1\n      0x440c93e2\n      eq\n      tag_3\n      jumpi\n      dup1\n      0xe655b7bb\n      eq\n      tag_4\n      jumpi\n    tag_2:\n      revert(0x00, 0x00)\n        /* \"contracts/ControlStructures.sol\":218:554  function fizzBuzz(uint _number) public pure returns (string memory) {... */\n    tag_3:\n      tag_5\n      0x04\n      dup1\n      calldatasize\n      sub\n      dup2\n      add\n      swap1\n      tag_6\n      swap2\n      swap1\n      tag_7\n      jump\t// in\n    tag_6:\n      tag_8\n      jump\t// in\n    tag_5:\n      mload(0x40)\n      tag_9\n      swap2\n      swap1\n      tag_10\n      jump\t// in\n    tag_9:\n      mload(0x40)\n      dup1\n      swap2\n      sub\n      swap1\n      return\n        /* \"contracts/ControlStructures.sol\":631:1546  function doNotDisturb(uint _time) public pure returns (string memory) {... */\n    tag_4:\n      tag_11\n      0x04\n      dup1\n      calldatasize\n      sub\n      dup2\n      add\n      swap1\n      tag_12\n      swap2\n      swap1\n      tag_7\n      jump\t// in\n    tag_12:\n      tag_13\n      jump\t// in\n    tag_11:\n      mload(0x40)\n      tag_14\n      swap2\n      swap1\n      tag_10\n      jump\t// in\n    tag_14:\n      mload(0x40)\n      dup1\n      swap2\n      sub\n      swap1\n      return\n        /* \"contracts/ControlStructures.sol\":218:554  function fizzBuzz(uint _number) public pure returns (string memory) {... */\n    tag_8:\n        /* \"contracts/ControlStructures.sol\":271:284  string memory */\n      0x60\n        /* \"contracts/ControlStructures.sol\":317:318  0 */\n      0x00\n        /* \"contracts/ControlStructures.sol\":311:313  15 */\n      0x0f\n        /* \"contracts/ControlStructures.sol\":301:308  _number */\n      dup4\n        /* \"contracts/ControlStructures.sol\":301:313  _number % 15 */\n      tag_16\n      swap2\n      swap1\n      tag_17\n      jump\t// in\n    tag_16:\n        /* \"contracts/ControlStructures.sol\":301:318  _number % 15 == 0 */\n      sub\n        /* \"contracts/ControlStructures.sol\":297:547  if (_number % 15 == 0) {... */\n      tag_18\n      jumpi\n        /* \"contracts/ControlStructures.sol\":335:352  return \"FizzBuzz\" */\n      mload(0x40)\n      dup1\n      0x40\n      add\n      0x40\n      mstore\n      dup1\n      0x08\n      dup2\n      mstore\n      0x20\n      add\n      0x46697a7a42757a7a000000000000000000000000000000000000000000000000\n      dup2\n      mstore\n      pop\n      swap1\n      pop\n      jump(tag_15)\n        /* \"contracts/ControlStructures.sol\":297:547  if (_number % 15 == 0) {... */\n    tag_18:\n        /* \"contracts/ControlStructures.sol\":389:390  0 */\n      0x00\n        /* \"contracts/ControlStructures.sol\":384:385  3 */\n      0x03\n        /* \"contracts/ControlStructures.sol\":374:381  _number */\n      dup4\n        /* \"contracts/ControlStructures.sol\":374:385  _number % 3 */\n      tag_20\n      swap2\n      swap1\n      tag_17\n      jump\t// in\n    tag_20:\n        /* \"contracts/ControlStructures.sol\":374:390  _number % 3 == 0 */\n      sub\n        /* \"contracts/ControlStructures.sol\":370:547  if (_number % 3 == 0) {... */\n      tag_21\n      jumpi\n        /* \"contracts/ControlStructures.sol\":407:420  return \"Fizz\" */\n      mload(0x40)\n      dup1\n      0x40\n      add\n      0x40\n      mstore\n      dup1\n      0x04\n      dup2\n      mstore\n      0x20\n      add\n      0x46697a7a00000000000000000000000000000000000000000000000000000000\n      dup2\n      mstore\n      pop\n      swap1\n      pop\n      jump(tag_15)\n        /* \"contracts/ControlStructures.sol\":370:547  if (_number % 3 == 0) {... */\n    tag_21:\n        /* \"contracts/ControlStructures.sol\":457:458  0 */\n      0x00\n        /* \"contracts/ControlStructures.sol\":452:453  5 */\n      0x05\n        /* \"contracts/ControlStructures.sol\":442:449  _number */\n      dup4\n        /* \"contracts/ControlStructures.sol\":442:453  _number % 5 */\n      tag_23\n      swap2\n      swap1\n      tag_17\n      jump\t// in\n    tag_23:\n        /* \"contracts/ControlStructures.sol\":442:458  _number % 5 == 0 */\n      sub\n        /* \"contracts/ControlStructures.sol\":438:547  if (_number % 5 == 0) {... */\n      tag_24\n      jumpi\n        /* \"contracts/ControlStructures.sol\":475:488  return \"Buzz\" */\n      mload(0x40)\n      dup1\n      0x40\n      add\n      0x40\n      mstore\n      dup1\n      0x04\n      dup2\n      mstore\n      0x20\n      add\n      0x42757a7a00000000000000000000000000000000000000000000000000000000\n      dup2\n      mstore\n      pop\n      swap1\n      pop\n      jump(tag_15)\n        /* \"contracts/ControlStructures.sol\":438:547  if (_number % 5 == 0) {... */\n    tag_24:\n        /* \"contracts/ControlStructures.sol\":521:535  return \"Splat\" */\n      mload(0x40)\n      dup1\n      0x40\n      add\n      0x40\n      mstore\n      dup1\n      0x05\n      dup2\n      mstore\n      0x20\n      add\n      0x53706c6174000000000000000000000000000000000000000000000000000000\n      dup2\n      mstore\n      pop\n      swap1\n      pop\n        /* \"contracts/ControlStructures.sol\":218:554  function fizzBuzz(uint _number) public pure returns (string memory) {... */\n    tag_15:\n      swap2\n      swap1\n      pop\n      jump\t// out\n        /* \"contracts/ControlStructures.sol\":631:1546  function doNotDisturb(uint _time) public pure returns (string memory) {... */\n    tag_13:\n        /* \"contracts/ControlStructures.sol\":686:699  string memory */\n      0x60\n        /* \"contracts/ControlStructures.sol\":799:803  2400 */\n      0x0960\n        /* \"contracts/ControlStructures.sol\":791:796  _time */\n      dup3\n        /* \"contracts/ControlStructures.sol\":791:803  _time < 2400 */\n      lt\n        /* \"contracts/ControlStructures.sol\":784:804  assert(_time < 2400) */\n      tag_27\n      jumpi\n      tag_28\n      tag_29\n      jump\t// in\n    tag_28:\n    tag_27:\n        /* \"contracts/ControlStructures.sol\":943:947  2200 */\n      0x0898\n        /* \"contracts/ControlStructures.sol\":935:940  _time */\n      dup3\n        /* \"contracts/ControlStructures.sol\":935:947  _time > 2200 */\n      gt\n        /* \"contracts/ControlStructures.sol\":935:962  _time > 2200 || _time < 800 */\n      dup1\n      tag_30\n      jumpi\n      pop\n        /* \"contracts/ControlStructures.sol\":959:962  800 */\n      0x0320\n        /* \"contracts/ControlStructures.sol\":951:956  _time */\n      dup3\n        /* \"contracts/ControlStructures.sol\":951:962  _time < 800 */\n      lt\n        /* \"contracts/ControlStructures.sol\":935:962  _time > 2200 || _time < 800 */\n    tag_30:\n        /* \"contracts/ControlStructures.sol\":931:1070  if (_time > 2200 || _time < 800) {... */\n      iszero\n      tag_31\n      jumpi\n        /* \"contracts/ControlStructures.sol\":997:1002  _time */\n      dup2\n        /* \"contracts/ControlStructures.sol\":986:1003  AfterHours(_time) */\n      mload(0x40)\n      0xa4bf701e00000000000000000000000000000000000000000000000000000000\n      dup2\n      mstore\n      0x04\n      add\n      tag_32\n      swap2\n      swap1\n      tag_33\n      jump\t// in\n    tag_32:\n      mload(0x40)\n      dup1\n      swap2\n      sub\n      swap1\n      revert\n        /* \"contracts/ControlStructures.sol\":931:1070  if (_time > 2200 || _time < 800) {... */\n    tag_31:\n        /* \"contracts/ControlStructures.sol\":1128:1132  1200 */\n      0x04b0\n        /* \"contracts/ControlStructures.sol\":1119:1124  _time */\n      dup3\n        /* \"contracts/ControlStructures.sol\":1119:1132  _time >= 1200 */\n      lt\n      iszero\n        /* \"contracts/ControlStructures.sol\":1119:1149  _time >= 1200 && _time <= 1259 */\n      dup1\n      iszero\n      tag_34\n      jumpi\n      pop\n        /* \"contracts/ControlStructures.sol\":1145:1149  1259 */\n      0x04eb\n        /* \"contracts/ControlStructures.sol\":1136:1141  _time */\n      dup3\n        /* \"contracts/ControlStructures.sol\":1136:1149  _time <= 1259 */\n      gt\n      iszero\n        /* \"contracts/ControlStructures.sol\":1119:1149  _time >= 1200 && _time <= 1259 */\n    tag_34:\n        /* \"contracts/ControlStructures.sol\":1115:1259  if (_time >= 1200 && _time <= 1259) {... */\n      iszero\n      tag_35\n      jumpi\n        /* \"contracts/ControlStructures.sol\":1166:1185  revert(\"At lunch!\") */\n      mload(0x40)\n      0x08c379a000000000000000000000000000000000000000000000000000000000\n      dup2\n      mstore\n      0x04\n      add\n      tag_36\n      swap1\n      tag_37\n      jump\t// in\n    tag_36:\n      mload(0x40)\n      dup1\n      swap2\n      sub\n      swap1\n      revert\n        /* \"contracts/ControlStructures.sol\":1115:1259  if (_time >= 1200 && _time <= 1259) {... */\n    tag_35:\n        /* \"contracts/ControlStructures.sol\":1303:1306  800 */\n      0x0320\n        /* \"contracts/ControlStructures.sol\":1294:1299  _time */\n      dup3\n        /* \"contracts/ControlStructures.sol\":1294:1306  _time >= 800 */\n      lt\n      iszero\n        /* \"contracts/ControlStructures.sol\":1294:1323  _time >= 800 && _time <= 1199 */\n      dup1\n      iszero\n      tag_38\n      jumpi\n      pop\n        /* \"contracts/ControlStructures.sol\":1319:1323  1199 */\n      0x04af\n        /* \"contracts/ControlStructures.sol\":1310:1315  _time */\n      dup3\n        /* \"contracts/ControlStructures.sol\":1310:1323  _time <= 1199 */\n      gt\n      iszero\n        /* \"contracts/ControlStructures.sol\":1294:1323  _time >= 800 && _time <= 1199 */\n    tag_38:\n        /* \"contracts/ControlStructures.sol\":1290:1369  if (_time >= 800 && _time <= 1199) {... */\n      iszero\n      tag_39\n      jumpi\n        /* \"contracts/ControlStructures.sol\":1340:1357  return \"Morning!\" */\n      mload(0x40)\n      dup1\n      0x40\n      add\n      0x40\n      mstore\n      dup1\n      0x08\n      dup2\n      mstore\n      0x20\n      add\n      0x4d6f726e696e6721000000000000000000000000000000000000000000000000\n      dup2\n      mstore\n      pop\n      swap1\n      pop\n      jump(tag_26)\n        /* \"contracts/ControlStructures.sol\":1290:1369  if (_time >= 800 && _time <= 1199) {... */\n    tag_39:\n        /* \"contracts/ControlStructures.sol\":1410:1414  1300 */\n      0x0514\n        /* \"contracts/ControlStructures.sol\":1401:1406  _time */\n      dup3\n        /* \"contracts/ControlStructures.sol\":1401:1414  _time >= 1300 */\n      lt\n      iszero\n        /* \"contracts/ControlStructures.sol\":1401:1431  _time >= 1300 && _time <= 1799 */\n      dup1\n      iszero\n      tag_40\n      jumpi\n      pop\n        /* \"contracts/ControlStructures.sol\":1427:1431  1799 */\n      0x0707\n        /* \"contracts/ControlStructures.sol\":1418:1423  _time */\n      dup3\n        /* \"contracts/ControlStructures.sol\":1418:1431  _time <= 1799 */\n      gt\n      iszero\n        /* \"contracts/ControlStructures.sol\":1401:1431  _time >= 1300 && _time <= 1799 */\n    tag_40:\n        /* \"contracts/ControlStructures.sol\":1397:1479  if (_time >= 1300 && _time <= 1799) {... */\n      iszero\n      tag_41\n      jumpi\n        /* \"contracts/ControlStructures.sol\":1448:1467  return \"Afternoon!\" */\n      mload(0x40)\n      dup1\n      0x40\n      add\n      0x40\n      mstore\n      dup1\n      0x0a\n      dup2\n      mstore\n      0x20\n      add\n      0x41667465726e6f6f6e2100000000000000000000000000000000000000000000\n      dup2\n      mstore\n      pop\n      swap1\n      pop\n      jump(tag_26)\n        /* \"contracts/ControlStructures.sol\":1397:1479  if (_time >= 1300 && _time <= 1799) {... */\n    tag_41:\n        /* \"contracts/ControlStructures.sol\":1521:1538  return \"Evening!\" */\n      mload(0x40)\n      dup1\n      0x40\n      add\n      0x40\n      mstore\n      dup1\n      0x08\n      dup2\n      mstore\n      0x20\n      add\n      0x4576656e696e6721000000000000000000000000000000000000000000000000\n      dup2\n      mstore\n      pop\n      swap1\n      pop\n        /* \"contracts/ControlStructures.sol\":631:1546  function doNotDisturb(uint _time) public pure returns (string memory) {... */\n    tag_26:\n      swap2\n      swap1\n      pop\n      jump\t// out\n        /* \"#utility.yul\":88:205   */\n    tag_43:\n        /* \"#utility.yul\":197:198   */\n      0x00\n        /* \"#utility.yul\":194:195   */\n      0x00\n        /* \"#utility.yul\":187:199   */\n      revert\n        /* \"#utility.yul\":334:411   */\n    tag_45:\n        /* \"#utility.yul\":371:378   */\n      0x00\n        /* \"#utility.yul\":400:405   */\n      dup2\n        /* \"#utility.yul\":389:405   */\n      swap1\n      pop\n        /* \"#utility.yul\":334:411   */\n      swap2\n      swap1\n      pop\n      jump\t// out\n        /* \"#utility.yul\":417:539   */\n    tag_46:\n        /* \"#utility.yul\":490:514   */\n      tag_63\n        /* \"#utility.yul\":508:513   */\n      dup2\n        /* \"#utility.yul\":490:514   */\n      tag_45\n      jump\t// in\n    tag_63:\n        /* \"#utility.yul\":483:488   */\n      dup2\n        /* \"#utility.yul\":480:515   */\n      eq\n        /* \"#utility.yul\":470:533   */\n      tag_64\n      jumpi\n        /* \"#utility.yul\":529:530   */\n      0x00\n        /* \"#utility.yul\":526:527   */\n      0x00\n        /* \"#utility.yul\":519:531   */\n      revert\n        /* \"#utility.yul\":470:533   */\n    tag_64:\n        /* \"#utility.yul\":417:539   */\n      pop\n      jump\t// out\n        /* \"#utility.yul\":545:684   */\n    tag_47:\n        /* \"#utility.yul\":591:596   */\n      0x00\n        /* \"#utility.yul\":629:635   */\n      dup2\n        /* \"#utility.yul\":616:636   */\n      calldataload\n        /* \"#utility.yul\":607:636   */\n      swap1\n      pop\n        /* \"#utility.yul\":645:678   */\n      tag_66\n        /* \"#utility.yul\":672:677   */\n      dup2\n        /* \"#utility.yul\":645:678   */\n      tag_46\n      jump\t// in\n    tag_66:\n        /* \"#utility.yul\":545:684   */\n      swap3\n      swap2\n      pop\n      pop\n      jump\t// out\n        /* \"#utility.yul\":690:1019   */\n    tag_7:\n        /* \"#utility.yul\":749:755   */\n      0x00\n        /* \"#utility.yul\":798:800   */\n      0x20\n        /* \"#utility.yul\":786:795   */\n      dup3\n        /* \"#utility.yul\":777:784   */\n      dup5\n        /* \"#utility.yul\":773:796   */\n      sub\n        /* \"#utility.yul\":769:801   */\n      slt\n        /* \"#utility.yul\":766:885   */\n      iszero\n      tag_68\n      jumpi\n        /* \"#utility.yul\":804:883   */\n      tag_69\n      tag_43\n      jump\t// in\n    tag_69:\n        /* \"#utility.yul\":766:885   */\n    tag_68:\n        /* \"#utility.yul\":924:925   */\n      0x00\n        /* \"#utility.yul\":949:1002   */\n      tag_70\n        /* \"#utility.yul\":994:1001   */\n      dup5\n        /* \"#utility.yul\":985:991   */\n      dup3\n        /* \"#utility.yul\":974:983   */\n      dup6\n        /* \"#utility.yul\":970:992   */\n      add\n        /* \"#utility.yul\":949:1002   */\n      tag_47\n      jump\t// in\n    tag_70:\n        /* \"#utility.yul\":939:1002   */\n      swap2\n      pop\n        /* \"#utility.yul\":895:1012   */\n      pop\n        /* \"#utility.yul\":690:1019   */\n      swap3\n      swap2\n      pop\n      pop\n      jump\t// out\n        /* \"#utility.yul\":1025:1124   */\n    tag_48:\n        /* \"#utility.yul\":1077:1083   */\n      0x00\n        /* \"#utility.yul\":1111:1116   */\n      dup2\n        /* \"#utility.yul\":1105:1117   */\n      mload\n        /* \"#utility.yul\":1095:1117   */\n      swap1\n      pop\n        /* \"#utility.yul\":1025:1124   */\n      swap2\n      swap1\n      pop\n      jump\t// out\n        /* \"#utility.yul\":1130:1299   */\n    tag_49:\n        /* \"#utility.yul\":1214:1225   */\n      0x00\n        /* \"#utility.yul\":1248:1254   */\n      dup3\n        /* \"#utility.yul\":1243:1246   */\n      dup3\n        /* \"#utility.yul\":1236:1255   */\n      mstore\n        /* \"#utility.yul\":1288:1292   */\n      0x20\n        /* \"#utility.yul\":1283:1286   */\n      dup3\n        /* \"#utility.yul\":1279:1293   */\n      add\n        /* \"#utility.yul\":1264:1293   */\n      swap1\n      pop\n        /* \"#utility.yul\":1130:1299   */\n      swap3\n      swap2\n      pop\n      pop\n      jump\t// out\n        /* \"#utility.yul\":1305:1444   */\n    tag_50:\n        /* \"#utility.yul\":1394:1400   */\n      dup3\n        /* \"#utility.yul\":1389:1392   */\n      dup2\n        /* \"#utility.yul\":1384:1387   */\n      dup4\n        /* \"#utility.yul\":1378:1401   */\n      mcopy\n        /* \"#utility.yul\":1435:1436   */\n      0x00\n        /* \"#utility.yul\":1426:1432   */\n      dup4\n        /* \"#utility.yul\":1421:1424   */\n      dup4\n        /* \"#utility.yul\":1417:1433   */\n      add\n        /* \"#utility.yul\":1410:1437   */\n      mstore\n        /* \"#utility.yul\":1305:1444   */\n      pop\n      pop\n      pop\n      jump\t// out\n        /* \"#utility.yul\":1450:1552   */\n    tag_51:\n        /* \"#utility.yul\":1491:1497   */\n      0x00\n        /* \"#utility.yul\":1542:1544   */\n      0x1f\n        /* \"#utility.yul\":1538:1545   */\n      not\n        /* \"#utility.yul\":1533:1535   */\n      0x1f\n        /* \"#utility.yul\":1526:1531   */\n      dup4\n        /* \"#utility.yul\":1522:1536   */\n      add\n        /* \"#utility.yul\":1518:1546   */\n      and\n        /* \"#utility.yul\":1508:1546   */\n      swap1\n      pop\n        /* \"#utility.yul\":1450:1552   */\n      swap2\n      swap1\n      pop\n      jump\t// out\n        /* \"#utility.yul\":1558:1935   */\n    tag_52:\n        /* \"#utility.yul\":1646:1649   */\n      0x00\n        /* \"#utility.yul\":1674:1713   */\n      tag_76\n        /* \"#utility.yul\":1707:1712   */\n      dup3\n        /* \"#utility.yul\":1674:1713   */\n      tag_48\n      jump\t// in\n    tag_76:\n        /* \"#utility.yul\":1729:1800   */\n      tag_77\n        /* \"#utility.yul\":1793:1799   */\n      dup2\n        /* \"#utility.yul\":1788:1791   */\n      dup6\n        /* \"#utility.yul\":1729:1800   */\n      tag_49\n      jump\t// in\n    tag_77:\n        /* \"#utility.yul\":1722:1800   */\n      swap4\n      pop\n        /* \"#utility.yul\":1809:1874   */\n      tag_78\n        /* \"#utility.yul\":1867:1873   */\n      dup2\n        /* \"#utility.yul\":1862:1865   */\n      dup6\n        /* \"#utility.yul\":1855:1859   */\n      0x20\n        /* \"#utility.yul\":1848:1853   */\n      dup7\n        /* \"#utility.yul\":1844:1860   */\n      add\n        /* \"#utility.yul\":1809:1874   */\n      tag_50\n      jump\t// in\n    tag_78:\n        /* \"#utility.yul\":1899:1928   */\n      tag_79\n        /* \"#utility.yul\":1921:1927   */\n      dup2\n        /* \"#utility.yul\":1899:1928   */\n      tag_51\n      jump\t// in\n    tag_79:\n        /* \"#utility.yul\":1894:1897   */\n      dup5\n        /* \"#utility.yul\":1890:1929   */\n      add\n        /* \"#utility.yul\":1883:1929   */\n      swap2\n      pop\n        /* \"#utility.yul\":1650:1935   */\n      pop\n        /* \"#utility.yul\":1558:1935   */\n      swap3\n      swap2\n      pop\n      pop\n      jump\t// out\n        /* \"#utility.yul\":1941:2254   */\n    tag_10:\n        /* \"#utility.yul\":2054:2058   */\n      0x00\n        /* \"#utility.yul\":2092:2094   */\n      0x20\n        /* \"#utility.yul\":2081:2090   */\n      dup3\n        /* \"#utility.yul\":2077:2095   */\n      add\n        /* \"#utility.yul\":2069:2095   */\n      swap1\n      pop\n        /* \"#utility.yul\":2141:2150   */\n      dup2\n        /* \"#utility.yul\":2135:2139   */\n      dup2\n        /* \"#utility.yul\":2131:2151   */\n      sub\n        /* \"#utility.yul\":2127:2128   */\n      0x00\n        /* \"#utility.yul\":2116:2125   */\n      dup4\n        /* \"#utility.yul\":2112:2129   */\n      add\n        /* \"#utility.yul\":2105:2152   */\n      mstore\n        /* \"#utility.yul\":2169:2247   */\n      tag_81\n        /* \"#utility.yul\":2242:2246   */\n      dup2\n        /* \"#utility.yul\":2233:2239   */\n      dup5\n        /* \"#utility.yul\":2169:2247   */\n      tag_52\n      jump\t// in\n    tag_81:\n        /* \"#utility.yul\":2161:2247   */\n      swap1\n      pop\n        /* \"#utility.yul\":1941:2254   */\n      swap3\n      swap2\n      pop\n      pop\n      jump\t// out\n        /* \"#utility.yul\":2260:2440   */\n    tag_53:\n        /* \"#utility.yul\":2308:2385   */\n      0x4e487b7100000000000000000000000000000000000000000000000000000000\n        /* \"#utility.yul\":2305:2306   */\n      0x00\n        /* \"#utility.yul\":2298:2386   */\n      mstore\n        /* \"#utility.yul\":2405:2409   */\n      0x12\n        /* \"#utility.yul\":2402:2403   */\n      0x04\n        /* \"#utility.yul\":2395:2410   */\n      mstore\n        /* \"#utility.yul\":2429:2433   */\n      0x24\n        /* \"#utility.yul\":2426:2427   */\n      0x00\n        /* \"#utility.yul\":2419:2434   */\n      revert\n        /* \"#utility.yul\":2446:2622   */\n    tag_17:\n        /* \"#utility.yul\":2478:2479   */\n      0x00\n        /* \"#utility.yul\":2495:2515   */\n      tag_84\n        /* \"#utility.yul\":2513:2514   */\n      dup3\n        /* \"#utility.yul\":2495:2515   */\n      tag_45\n      jump\t// in\n    tag_84:\n        /* \"#utility.yul\":2490:2515   */\n      swap2\n      pop\n        /* \"#utility.yul\":2529:2549   */\n      tag_85\n        /* \"#utility.yul\":2547:2548   */\n      dup4\n        /* \"#utility.yul\":2529:2549   */\n      tag_45\n      jump\t// in\n    tag_85:\n        /* \"#utility.yul\":2524:2549   */\n      swap3\n      pop\n        /* \"#utility.yul\":2568:2569   */\n      dup3\n        /* \"#utility.yul\":2558:2593   */\n      tag_86\n      jumpi\n        /* \"#utility.yul\":2573:2591   */\n      tag_87\n      tag_53\n      jump\t// in\n    tag_87:\n        /* \"#utility.yul\":2558:2593   */\n    tag_86:\n        /* \"#utility.yul\":2614:2615   */\n      dup3\n        /* \"#utility.yul\":2611:2612   */\n      dup3\n        /* \"#utility.yul\":2607:2616   */\n      mod\n        /* \"#utility.yul\":2602:2616   */\n      swap1\n      pop\n        /* \"#utility.yul\":2446:2622   */\n      swap3\n      swap2\n      pop\n      pop\n      jump\t// out\n        /* \"#utility.yul\":2628:2808   */\n    tag_29:\n        /* \"#utility.yul\":2676:2753   */\n      0x4e487b7100000000000000000000000000000000000000000000000000000000\n        /* \"#utility.yul\":2673:2674   */\n      0x00\n        /* \"#utility.yul\":2666:2754   */\n      mstore\n        /* \"#utility.yul\":2773:2777   */\n      0x01\n        /* \"#utility.yul\":2770:2771   */\n      0x04\n        /* \"#utility.yul\":2763:2778   */\n      mstore\n        /* \"#utility.yul\":2797:2801   */\n      0x24\n        /* \"#utility.yul\":2794:2795   */\n      0x00\n        /* \"#utility.yul\":2787:2802   */\n      revert\n        /* \"#utility.yul\":2814:2932   */\n    tag_54:\n        /* \"#utility.yul\":2901:2925   */\n      tag_90\n        /* \"#utility.yul\":2919:2924   */\n      dup2\n        /* \"#utility.yul\":2901:2925   */\n      tag_45\n      jump\t// in\n    tag_90:\n        /* \"#utility.yul\":2896:2899   */\n      dup3\n        /* \"#utility.yul\":2889:2926   */\n      mstore\n        /* \"#utility.yul\":2814:2932   */\n      pop\n      pop\n      jump\t// out\n        /* \"#utility.yul\":2938:3160   */\n    tag_33:\n        /* \"#utility.yul\":3031:3035   */\n      0x00\n        /* \"#utility.yul\":3069:3071   */\n      0x20\n        /* \"#utility.yul\":3058:3067   */\n      dup3\n        /* \"#utility.yul\":3054:3072   */\n      add\n        /* \"#utility.yul\":3046:3072   */\n      swap1\n      pop\n        /* \"#utility.yul\":3082:3153   */\n      tag_92\n        /* \"#utility.yul\":3150:3151   */\n      0x00\n        /* \"#utility.yul\":3139:3148   */\n      dup4\n        /* \"#utility.yul\":3135:3152   */\n      add\n        /* \"#utility.yul\":3126:3132   */\n      dup5\n        /* \"#utility.yul\":3082:3153   */\n      tag_54\n      jump\t// in\n    tag_92:\n        /* \"#utility.yul\":2938:3160   */\n      swap3\n      swap2\n      pop\n      pop\n      jump\t// out\n        /* \"#utility.yul\":3166:3325   */\n    tag_55:\n        /* \"#utility.yul\":3306:3317   */\n      0x4174206c756e6368210000000000000000000000000000000000000000000000\n        /* \"#utility.yul\":3302:3303   */\n      0x00\n        /* \"#utility.yul\":3294:3300   */\n      dup3\n        /* \"#utility.yul\":3290:3304   */\n      add\n        /* \"#utility.yul\":3283:3318   */\n      mstore\n        /* \"#utility.yul\":3166:3325   */\n      pop\n      jump\t// out\n        /* \"#utility.yul\":3331:3696   */\n    tag_56:\n        /* \"#utility.yul\":3473:3476   */\n      0x00\n        /* \"#utility.yul\":3494:3560   */\n      tag_95\n        /* \"#utility.yul\":3558:3559   */\n      0x09\n        /* \"#utility.yul\":3553:3556   */\n      dup4\n        /* \"#utility.yul\":3494:3560   */\n      tag_49\n      jump\t// in\n    tag_95:\n        /* \"#utility.yul\":3487:3560   */\n      swap2\n      pop\n        /* \"#utility.yul\":3569:3662   */\n      tag_96\n        /* \"#utility.yul\":3658:3661   */\n      dup3\n        /* \"#utility.yul\":3569:3662   */\n      tag_55\n      jump\t// in\n    tag_96:\n        /* \"#utility.yul\":3687:3689   */\n      0x20\n        /* \"#utility.yul\":3682:3685   */\n      dup3\n        /* \"#utility.yul\":3678:3690   */\n      add\n        /* \"#utility.yul\":3671:3690   */\n      swap1\n      pop\n        /* \"#utility.yul\":3331:3696   */\n      swap2\n      swap1\n      pop\n      jump\t// out\n        /* \"#utility.yul\":3702:4121   */\n    tag_37:\n        /* \"#utility.yul\":3868:3872   */\n      0x00\n        /* \"#utility.yul\":3906:3908   */\n      0x20\n        /* \"#utility.yul\":3895:3904   */\n      dup3\n        /* \"#utility.yul\":3891:3909   */\n      add\n        /* \"#utility.yul\":3883:3909   */\n      swap1\n      pop\n        /* \"#utility.yul\":3955:3964   */\n      dup2\n        /* \"#utility.yul\":3949:3953   */\n      dup2\n        /* \"#utility.yul\":3945:3965   */\n      sub\n        /* \"#utility.yul\":3941:3942   */\n      0x00\n        /* \"#utility.yul\":3930:3939   */\n      dup4\n        /* \"#utility.yul\":3926:3943   */\n      add\n        /* \"#utility.yul\":3919:3966   */\n      mstore\n        /* \"#utility.yul\":3983:4114   */\n      tag_98\n        /* \"#utility.yul\":4109:4113   */\n      dup2\n        /* \"#utility.yul\":3983:4114   */\n      tag_56\n      jump\t// in\n    tag_98:\n        /* \"#utility.yul\":3975:4114   */\n      swap1\n      pop\n        /* \"#utility.yul\":3702:4121   */\n      swap2\n      swap1\n      pop\n      jump\t// out\n\n    auxdata: 0xa264697066735822122095a6db42d6fdafe376a9ce4d66ecad8662416a961dd6ebca189daa7cc25281df64736f6c634300081e0033\n}\n",
				"bytecode": {
					"linkReferences": {},
					"object": "6080604052348015600e575f5ffd5b506105af8061001c5f395ff3fe608060405234801561000f575f5ffd5b5060043610610034575f3560e01c8063440c93e214610038578063e655b7bb14610068575b5f5ffd5b610052600480360381019061004d91906103a4565b610098565b60405161005f919061043f565b60405180910390f35b610082600480360381019061007d91906103a4565b6101c8565b60405161008f919061043f565b60405180910390f35b60605f600f836100a8919061048c565b036100ea576040518060400160405280600881526020017f46697a7a42757a7a00000000000000000000000000000000000000000000000081525090506101c3565b5f6003836100f8919061048c565b0361013a576040518060400160405280600481526020017f46697a7a0000000000000000000000000000000000000000000000000000000081525090506101c3565b5f600583610148919061048c565b0361018a576040518060400160405280600481526020017f42757a7a0000000000000000000000000000000000000000000000000000000081525090506101c3565b6040518060400160405280600581526020017f53706c617400000000000000000000000000000000000000000000000000000081525090505b919050565b606061096082106101dc576101db6104bc565b5b6108988211806101ed575061032082105b1561022f57816040517fa4bf701e00000000000000000000000000000000000000000000000000000000815260040161022691906104f8565b60405180910390fd5b6104b0821015801561024357506104eb8211155b15610283576040517f08c379a000000000000000000000000000000000000000000000000000000000815260040161027a9061055b565b60405180910390fd5b610320821015801561029757506104af8211155b156102d9576040518060400160405280600881526020017f4d6f726e696e67210000000000000000000000000000000000000000000000008152509050610368565b61051482101580156102ed57506107078211155b1561032f576040518060400160405280600a81526020017f41667465726e6f6f6e21000000000000000000000000000000000000000000008152509050610368565b6040518060400160405280600881526020017f4576656e696e672100000000000000000000000000000000000000000000000081525090505b919050565b5f5ffd5b5f819050919050565b61038381610371565b811461038d575f5ffd5b50565b5f8135905061039e8161037a565b92915050565b5f602082840312156103b9576103b861036d565b5b5f6103c684828501610390565b91505092915050565b5f81519050919050565b5f82825260208201905092915050565b8281835e5f83830152505050565b5f601f19601f8301169050919050565b5f610411826103cf565b61041b81856103d9565b935061042b8185602086016103e9565b610434816103f7565b840191505092915050565b5f6020820190508181035f8301526104578184610407565b905092915050565b7f4e487b71000000000000000000000000000000000000000000000000000000005f52601260045260245ffd5b5f61049682610371565b91506104a183610371565b9250826104b1576104b061045f565b5b828206905092915050565b7f4e487b71000000000000000000000000000000000000000000000000000000005f52600160045260245ffd5b6104f281610371565b82525050565b5f60208201905061050b5f8301846104e9565b92915050565b7f4174206c756e63682100000000000000000000000000000000000000000000005f82015250565b5f6105456009836103d9565b915061055082610511565b602082019050919050565b5f6020820190508181035f83015261057281610539565b905091905056fea264697066735822122095a6db42d6fdafe376a9ce4d66ecad8662416a961dd6ebca189daa7cc25281df64736f6c634300081e0033",
					"opcodes": "PUSH1 0x80 PUSH1 0x40 MSTORE CALLVALUE DUP1 ISZERO PUSH1 0xE JUMPI PUSH0 PUSH0 REVERT JUMPDEST POP PUSH2 0x5AF DUP1 PUSH2 0x1C PUSH0 CODECOPY PUSH0 RETURN INVALID PUSH1 0x80 PUSH1 0x40 MSTORE CALLVALUE DUP1 ISZERO PUSH2 0xF JUMPI PUSH0 PUSH0 REVERT JUMPDEST POP PUSH1 0x4 CALLDATASIZE LT PUSH2 0x34 JUMPI PUSH0 CALLDATALOAD PUSH1 0xE0 SHR DUP1 PUSH4 0x440C93E2 EQ PUSH2 0x38 JUMPI DUP1 PUSH4 0xE655B7BB EQ PUSH2 0x68 JUMPI JUMPDEST PUSH0 PUSH0 REVERT JUMPDEST PUSH2 0x52 PUSH1 0x4 DUP1 CALLDATASIZE SUB DUP2 ADD SWAP1 PUSH2 0x4D SWAP2 SWAP1 PUSH2 0x3A4 JUMP JUMPDEST PUSH2 0x98 JUMP JUMPDEST PUSH1 0x40 MLOAD PUSH2 0x5F SWAP2 SWAP1 PUSH2 0x43F JUMP JUMPDEST PUSH1 0x40 MLOAD DUP1 SWAP2 SUB SWAP1 RETURN JUMPDEST PUSH2 0x82 PUSH1 0x4 DUP1 CALLDATASIZE SUB DUP2 ADD SWAP1 PUSH2 0x7D SWAP2 SWAP1 PUSH2 0x3A4 JUMP JUMPDEST PUSH2 0x1C8 JUMP JUMPDEST PUSH1 0x40 MLOAD PUSH2 0x8F SWAP2 SWAP1 PUSH2 0x43F JUMP JUMPDEST PUSH1 0x40 MLOAD DUP1 SWAP2 SUB SWAP1 RETURN JUMPDEST PUSH1 0x60 PUSH0 PUSH1 0xF DUP4 PUSH2 0xA8 SWAP2 SWAP1 PUSH2 0x48C JUMP JUMPDEST SUB PUSH2 0xEA JUMPI PUSH1 0x40 MLOAD DUP1 PUSH1 0x40 ADD PUSH1 0x40 MSTORE DUP1 PUSH1 0x8 DUP2 MSTORE PUSH1 0x20 ADD PUSH32 0x46697A7A42757A7A000000000000000000000000000000000000000000000000 DUP2 MSTORE POP SWAP1 POP PUSH2 0x1C3 JUMP JUMPDEST PUSH0 PUSH1 0x3 DUP4 PUSH2 0xF8 SWAP2 SWAP1 PUSH2 0x48C JUMP JUMPDEST SUB PUSH2 0x13A JUMPI PUSH1 0x40 MLOAD DUP1 PUSH1 0x40 ADD PUSH1 0x40 MSTORE DUP1 PUSH1 0x4 DUP2 MSTORE PUSH1 0x20 ADD PUSH32 0x46697A7A00000000000000000000000000000000000000000000000000000000 DUP2 MSTORE POP SWAP1 POP PUSH2 0x1C3 JUMP JUMPDEST PUSH0 PUSH1 0x5 DUP4 PUSH2 0x148 SWAP2 SWAP1 PUSH2 0x48C JUMP JUMPDEST SUB PUSH2 0x18A JUMPI PUSH1 0x40 MLOAD DUP1 PUSH1 0x40 ADD PUSH1 0x40 MSTORE DUP1 PUSH1 0x4 DUP2 MSTORE PUSH1 0x20 ADD PUSH32 0x42757A7A00000000000000000000000000000000000000000000000000000000 DUP2 MSTORE POP SWAP1 POP PUSH2 0x1C3 JUMP JUMPDEST PUSH1 0x40 MLOAD DUP1 PUSH1 0x40 ADD PUSH1 0x40 MSTORE DUP1 PUSH1 0x5 DUP2 MSTORE PUSH1 0x20 ADD PUSH32 0x53706C6174000000000000000000000000000000000000000000000000000000 DUP2 MSTORE POP SWAP1 POP JUMPDEST SWAP2 SWAP1 POP JUMP JUMPDEST PUSH1 0x60 PUSH2 0x960 DUP3 LT PUSH2 0x1DC JUMPI PUSH2 0x1DB PUSH2 0x4BC JUMP JUMPDEST JUMPDEST PUSH2 0x898 DUP3 GT DUP1 PUSH2 0x1ED JUMPI POP PUSH2 0x320 DUP3 LT JUMPDEST ISZERO PUSH2 0x22F JUMPI DUP2 PUSH1 0x40 MLOAD PUSH32 0xA4BF701E00000000000000000000000000000000000000000000000000000000 DUP2 MSTORE PUSH1 0x4 ADD PUSH2 0x226 SWAP2 SWAP1 PUSH2 0x4F8 JUMP JUMPDEST PUSH1 0x40 MLOAD DUP1 SWAP2 SUB SWAP1 REVERT JUMPDEST PUSH2 0x4B0 DUP3 LT ISZERO DUP1 ISZERO PUSH2 0x243 JUMPI POP PUSH2 0x4EB DUP3 GT ISZERO JUMPDEST ISZERO PUSH2 0x283 JUMPI PUSH1 0x40 MLOAD PUSH32 0x8C379A000000000000000000000000000000000000000000000000000000000 DUP2 MSTORE PUSH1 0x4 ADD PUSH2 0x27A SWAP1 PUSH2 0x55B JUMP JUMPDEST PUSH1 0x40 MLOAD DUP1 SWAP2 SUB SWAP1 REVERT JUMPDEST PUSH2 0x320 DUP3 LT ISZERO DUP1 ISZERO PUSH2 0x297 JUMPI POP PUSH2 0x4AF DUP3 GT ISZERO JUMPDEST ISZERO PUSH2 0x2D9 JUMPI PUSH1 0x40 MLOAD DUP1 PUSH1 0x40 ADD PUSH1 0x40 MSTORE DUP1 PUSH1 0x8 DUP2 MSTORE PUSH1 0x20 ADD PUSH32 0x4D6F726E696E6721000000000000000000000000000000000000000000000000 DUP2 MSTORE POP SWAP1 POP PUSH2 0x368 JUMP JUMPDEST PUSH2 0x514 DUP3 LT ISZERO DUP1 ISZERO PUSH2 0x2ED JUMPI POP PUSH2 0x707 DUP3 GT ISZERO JUMPDEST ISZERO PUSH2 0x32F JUMPI PUSH1 0x40 MLOAD DUP1 PUSH1 0x40 ADD PUSH1 0x40 MSTORE DUP1 PUSH1 0xA DUP2 MSTORE PUSH1 0x20 ADD PUSH32 0x41667465726E6F6F6E2100000000000000000000000000000000000000000000 DUP2 MSTORE POP SWAP1 POP PUSH2 0x368 JUMP JUMPDEST PUSH1 0x40 MLOAD DUP1 PUSH1 0x40 ADD PUSH1 0x40 MSTORE DUP1 PUSH1 0x8 DUP2 MSTORE PUSH1 0x20 ADD PUSH32 0x4576656E696E6721000000000000000000000000000000000000000000000000 DUP2 MSTORE POP SWAP1 POP JUMPDEST SWAP2 SWAP1 POP JUMP JUMPDEST PUSH0 PUSH0 REVERT JUMPDEST PUSH0 DUP2 SWAP1 POP SWAP2 SWAP1 POP JUMP JUMPDEST PUSH2 0x383 DUP2 PUSH2 0x371 JUMP JUMPDEST DUP2 EQ PUSH2 0x38D JUMPI PUSH0 PUSH0 REVERT JUMPDEST POP JUMP JUMPDEST PUSH0 DUP2 CALLDATALOAD SWAP1 POP PUSH2 0x39E DUP2 PUSH2 0x37A JUMP JUMPDEST SWAP3 SWAP2 POP POP JUMP JUMPDEST PUSH0 PUSH1 0x20 DUP3 DUP5 SUB SLT ISZERO PUSH2 0x3B9 JUMPI PUSH2 0x3B8 PUSH2 0x36D JUMP JUMPDEST JUMPDEST PUSH0 PUSH2 0x3C6 DUP5 DUP3 DUP6 ADD PUSH2 0x390 JUMP JUMPDEST SWAP2 POP POP SWAP3 SWAP2 POP POP JUMP JUMPDEST PUSH0 DUP2 MLOAD SWAP1 POP SWAP2 SWAP1 POP JUMP JUMPDEST PUSH0 DUP3 DUP3 MSTORE PUSH1 0x20 DUP3 ADD SWAP1 POP SWAP3 SWAP2 POP POP JUMP JUMPDEST DUP3 DUP2 DUP4 MCOPY PUSH0 DUP4 DUP4 ADD MSTORE POP POP POP JUMP JUMPDEST PUSH0 PUSH1 0x1F NOT PUSH1 0x1F DUP4 ADD AND SWAP1 POP SWAP2 SWAP1 POP JUMP JUMPDEST PUSH0 PUSH2 0x411 DUP3 PUSH2 0x3CF JUMP JUMPDEST PUSH2 0x41B DUP2 DUP6 PUSH2 0x3D9 JUMP JUMPDEST SWAP4 POP PUSH2 0x42B DUP2 DUP6 PUSH1 0x20 DUP7 ADD PUSH2 0x3E9 JUMP JUMPDEST PUSH2 0x434 DUP2 PUSH2 0x3F7 JUMP JUMPDEST DUP5 ADD SWAP2 POP POP SWAP3 SWAP2 POP POP JUMP JUMPDEST PUSH0 PUSH1 0x20 DUP3 ADD SWAP1 POP DUP2 DUP2 SUB PUSH0 DUP4 ADD MSTORE PUSH2 0x457 DUP2 DUP5 PUSH2 0x407 JUMP JUMPDEST SWAP1 POP SWAP3 SWAP2 POP POP JUMP JUMPDEST PUSH32 0x4E487B7100000000000000000000000000000000000000000000000000000000 PUSH0 MSTORE PUSH1 0x12 PUSH1 0x4 MSTORE PUSH1 0x24 PUSH0 REVERT JUMPDEST PUSH0 PUSH2 0x496 DUP3 PUSH2 0x371 JUMP JUMPDEST SWAP2 POP PUSH2 0x4A1 DUP4 PUSH2 0x371 JUMP JUMPDEST SWAP3 POP DUP3 PUSH2 0x4B1 JUMPI PUSH2 0x4B0 PUSH2 0x45F JUMP JUMPDEST JUMPDEST DUP3 DUP3 MOD SWAP1 POP SWAP3 SWAP2 POP POP JUMP JUMPDEST PUSH32 0x4E487B7100000000000000000000000000000000000000000000000000000000 PUSH0 MSTORE PUSH1 0x1 PUSH1 0x4 MSTORE PUSH1 0x24 PUSH0 REVERT JUMPDEST PUSH2 0x4F2 DUP2 PUSH2 0x371 JUMP JUMPDEST DUP3 MSTORE POP POP JUMP JUMPDEST PUSH0 PUSH1 0x20 DUP3 ADD SWAP1 POP PUSH2 0x50B PUSH0 DUP4 ADD DUP5 PUSH2 0x4E9 JUMP JUMPDEST SWAP3 SWAP2 POP POP JUMP JUMPDEST PUSH32 0x4174206C756E6368210000000000000000000000000000000000000000000000 PUSH0 DUP3 ADD MSTORE POP JUMP JUMPDEST PUSH0 PUSH2 0x545 PUSH1 0x9 DUP4 PUSH2 0x3D9 JUMP JUMPDEST SWAP2 POP PUSH2 0x550 DUP3 PUSH2 0x511 JUMP JUMPDEST PUSH1 0x20 DUP3 ADD SWAP1 POP SWAP2 SWAP1 POP JUMP JUMPDEST PUSH0 PUSH1 0x20 DUP3 ADD SWAP1 POP DUP2 DUP2 SUB PUSH0 DUP4 ADD MSTORE PUSH2 0x572 DUP2 PUSH2 0x539 JUMP JUMPDEST SWAP1 POP SWAP2 SWAP1 POP JUMP INVALID LOG2 PUSH5 0x6970667358 0x22 SLT KECCAK256 SWAP6 0xA6 0xDB TIMESTAMP 0xD6 REVERT 0xAF CALLF 0x76A9 0xCE 0x4D PUSH7 0xECAD8662416A96 SAR 0xD6 0xEB 0xCA XOR SWAP14 0xAA PUSH29 0xC25281DF64736F6C634300081E00330000000000000000000000000000 "
				},
				"gasEstimates": {
					"creation": {
						"codeDepositCost": "291000",
						"executionCost": "329",
						"totalCost": "291329"
					},
					"external": {
						"doNotDisturb(uint256)": "infinite",
						"fizzBuzz(uint256)": "infinite"
					}
				},
				"methodIdentifiers": {
					"doNotDisturb(uint256)": "e655b7bb",
					"fizzBuzz(uint256)": "440c93e2"
				}
			},
			"storageLayout": {
				"storage": [],
				"types": null
			},
			"userdoc": {
				"kind": "user",
				"methods": {
					"doNotDisturb(uint256)": {
						"notice": "Controla horários, reverte ou retorna saudações."
					},
					"fizzBuzz(uint256)": {
						"notice": "Retorna \"Fizz\", \"Buzz\", \"FizzBuzz\" ou \"Splat\" conforme regras clássicas."
					}
				},
				"version": 1
			}
		}
	}
}